:020000040800F2
:1000000098040020490100088D05000885050008B6
:10001000890500080D0300082D0B000800000000F2
:100020000000000000000000000000000D070008B4
:10003000010400080000000015060008210800085F
:100040006301000863010008630100086301000800
:1000500063010008630100086301000863010008F0
:1000600063010008630100086301000863010008E0
:1000700063010008630100086301000863010008D0
:1000800063010008630100086301000863010008C0
:100090000D0B0008630100086301000863010008FC
:1000A00063010008630100086301000863010008A0
:1000B0006301000863010008630100086301000890
:1000C0006301000863010008630100086301000880
:1000D0006301000885080008630100086301000847
:1000E0006301000863010008630100086301000860
:1000F0006301000863010008630100086301000850
:10010000630100086301000863010008630100083F
:10011000630100086301000863010008630100082F
:10012000630100086301000863010008630100081F
:10013000DFF810D000F030F800480047E90C000864
:10014000AFF3008098040020064880470648004727
:10015000FEE7FEE7FEE7FEE7FEE7FEE7FEE7FEE777
:10016000FEE7FEE7250800083101000830B50B4620
:10017000014600202022012409E021FA02F59D42D7
:1001800005D303FA02F5491B04FA02F52844151EAB
:10019000A2F10102F1DC30BD064C074D06E0E0683B
:1001A00040F0010394E8070098471034AC42F6D3BE
:1001B000FFF7C2FFA00D0008C00D000810B56FF0DA
:1001C000040000F019FB10BD70B504464FF4FA703E
:1001D00094FBF0F0C6B24FF4FA7094FBF0F100FB20
:1001E000114085B205E04FF4FA7000F00AF9701E74
:1001F000C6B2002EF7D115B1284600F002F970BD45
:1002000001464906084A926942F00102064B9A618A
:10021000064A526822F0E062044B5A601A4652685D
:100220000A435A607047000000100240000001407D
:1002300008B50121082000F0EFF93020ADF80000EA
:1002400010208DF8030003208DF802006946044851
:1002500000F0FBF83021024800F08DF908BD0000E5
:10026000000C014010B586B004460121042000F0C6
:10027000D3F90121880300F0CFF94FF40070ADF8F5
:10028000140018208DF8170003208DF8160005A91A
:100290001C4800F0DAF84FF48060ADF81400042038
:1002A0008DF8170005A9174800F0CFF80194002039
:1002B000ADF80800ADF80A00ADF80C00ADF810007C
:1002C0000C20ADF80E0001A90F4800F0A9FB252075
:1002D0008DF8000002208DF8010001208DF8020049
:1002E0008DF80300684600F053F9012240F22551D1
:1002F000054800F070FB0121034800F029FB06B01F
:1003000010BD0000000801400038014000BFFEE7BA
:1003100010B500F5D87303EB01131B6803F0040359
:100320001372137A53B900F5D87303EB01131B68EA
:1003300040F2FF7404EA5353136009E000F5D873E8
:1003400003EB01131B686FF0604404EAD3035360AE
:1003500000F5D87303EB01131B6803F0020353721B
:1003600000F5D87303EB01135B6803F00F0393727E
:1003700000F5D87303EB01135B681B0AD37400F517
:10038000D87303EB01139B68D37200F5D87303EBAA
:1003900001139B681C0A147300F5D87303EB011357
:1003A0009B681C0C547300F5D87303EB01139B6816
:1003B0001B0E937300F5D87303EB0113DB68D37343
:1003C00000F5D87303EB0113DB681C0A147400F505
:1003D000D87303EB0113DB681C0C547400F5D8735D
:1003E00003EB0113DB681B0E937421B9C36843F060
:1003F0002003C36003E0036943F02003036110BDE1
:100400007047014642F228324A434FF0E0235A61D6
:1004100000229A611A46126942F001021A6100BF75
:100420004FF0E022106900F001021AB100F48032AE
:10043000002AF5D04FF0E022126922F001024FF0BD
:10044000E0231A6100229A6170472DE9F0410246CB
:1004500000250026002000230024002791F803C077
:100460000CF00F0591F803C00CF0100CBCF1000F5C
:1004700003D091F802C04CEA050591F800C0BCF128
:10048000000F31D0146800202BE04FF0010C0CFA63
:1004900000F3B1F800C00CEA03069E4220D18300AD
:1004A0004FF00F0C0CFA03F7BC4305FA03FC4CEABF
:1004B000040491F803C0BCF1280F06D14FF0010CE1
:1004C0000CFA00FCC2F814C00AE091F803C0BCF1B9
:1004D000480F05D14FF0010C0CFA00FCC2F810C017
:1004E000401C0828D1D31460B1F800C0BCF1FF0F44
:1004F00034DD546800202EE000F1080C4FF00108B4
:1005000008FA0CF3B1F800C00CEA03069E4221D1B0
:1005100083004FF00F0C0CFA03F7BC4305FA03FC01
:100520004CEA040491F803C0BCF1280F05D100F196
:10053000080C08FA0CF8C2F8148091F803C0BCF15A
:10054000480F07D100F1080C4FF0010808FA0CF829
:10055000C2F81080401C0828CED35460BDE8F0815A
:100560000246002093680B400BB1012000E0002000
:10057000704741617047016170470AB1016100E055
:100580004161704700BFFEE700BFFEE77047000013
:1005900070B5002100230F22C47804B3154C2468E1
:1005A00004F4E064C4F5E064210AC1F10403CA4024
:1005B000447804FA03F184781440214309010E4C75
:1005C0000678A155047804F01F050124AC40057895
:1005D0006D11AD0005F1E025C5F8004109E0047892
:1005E00004F01F050124AC40044D0678761145F84F
:1005F000264070BD0CED00E000E400E080E100E08A
:1006000002490143024A1160704700000000FA05E8
:100610000CED00E07047000029B1064A92690243E0
:10062000044B9A6104E0034A92698243014B9A6148
:10063000704700000010024030B500210022002465
:1006400000232D4D6D6805F00C0121B1042905D062
:10065000082923D105E0294D056022E0274D0560DA
:100660001FE0254D6D6805F47012234D6D6805F48B
:100670008034022505EB92421CB9214D554305609B
:100680000BE01D4D6D6805F400351DB11C4D554343
:10069000056002E0194D5543056002E0174D056005
:1006A00000BF00BF144D6D6805F0F0010909154D3C
:1006B0006B5C0568DD4045600F4D6D6805F4E061D9
:1006C000090A104D6B5C4568DD4085600A4D6D6818
:1006D00005F46051C90A0B4D6B5C4568DD40C5608F
:1006E000054D6D6805F44041890B074D6B5CC5688D
:1006F000B5FBF3F5056130BD0010024000127A0031
:1007000000093D000400002014000020704710B5CF
:1007100000F002F810BD00000CB500200190009020
:100720003348006840F480303149086000BF3048E9
:10073000006800F4003000900198401C019000987F
:1007400018B90198B0F5A06FF1D12948006800F4FC
:10075000003010B10120009001E0002000900098CE
:10076000012843D12348006840F010002149086067
:100770000846006820F0030008600846006840F062
:10078000020008601A4840681949486008464068F5
:1007900048600846406840F4806048600846406809
:1007A00020F47C1048600846406840F4E810486037
:1007B0000846006840F08070086000BF0C48006880
:1007C00000F000700028F9D00948406820F00300CC
:1007D000074948600846406840F00200486000BF92
:1007E0000348406800F00C000828F9D10CBD000057
:1007F0000010024000200240042808D14FF0E02100
:10080000096941F004014FF0E022116107E04FF067
:10081000E021096921F004014FF0E02211617047E5
:100820007047000010B51348006840F001001149FE
:10083000086008464068104908400E49486008466C
:1008400000680E4908400B4908600846006820F41B
:10085000802008600846406820F4FE0048604FF49D
:100860001F008860FFF753FF4FF0006004490860E5
:1008700010BD0000001002400000FFF8FFFFF6FE70
:1008800008ED00E010B540F225512C4800F079F851
:10089000002851D0294800F02FF9C4B22848007828
:1008A000032823DA2648007838B9AA2C3ED12548F7
:1008B000047001202249087038E02148007801289E
:1008C0000BD1552C05D11F48447002201C490870DB
:1008D0002CE000201A49087028E01A488470032090
:1008E00017490870601E184908701FE01548807885
:1008F000401E1349097888420EDD124810490978D4
:1009000044540F480078401C0D4908700E48007888
:1009100020440D49087009E00B480078844205D155
:1009200001200A490870002005490870012240F2A0
:100930002551024800F04FF810BD0000003801407A
:10094000010000201C000020020000200000002008
:1009500021B1828942F40052828104E082894DF6FD
:10096000FF731A408281704702460020B1F5007F74
:1009700000D100BF13880B400BB1012000E0002024
:10098000704770B50246002400230025002040F681
:100990006A16B14200D100BFC1F3421501F01F0336
:1009A000012606FA03F3012D02D19689334006E0B1
:1009B000022D02D1168A334001E0968A33400C1290
:1009C000012606FA04F41688344013B10CB1012054
:1009D00000E0002070BDF0B503460024002600258D
:1009E000002040F66A17B94200D100BF1846C1F393
:1009F000421401F01F06012707FA06F5012C01D168
:100A00000C3004E0022C01D1103000E014301AB197
:100A100007682F43076002E00768AF430760F0BD37
:100A20002DE9F04786B005460E460024A24600BFD9
:100A3000A1460027B08900B100BF2F462C8A4CF692
:100A4000FF700440F08804432C82AC894EF6F3100A
:100A50000440B08831890843718908430443AC815C
:100A6000AC8A4FF6FF400440B0890443AC8201A831
:100A7000FFF7E2FD1F48874202D1DDF810A001E038
:100A8000DDF80CA0A88900F4004040B10AEBCA00D0
:100A900000EB0A1031684900B0FBF1F807E00AEBFF
:100AA000CA0000EB0A1031688900B0FBF1F864203D
:100AB000B8FBF0F004012009642101FB1089A8892A
:100AC00000F4004040B1322000EBC900B0FBF1F06F
:100AD00000F00700044308E0322000EB0910642115
:100AE000B0FBF1F000F00F0004432C8106B0BDE82C
:100AF000F08700000038014001468888C0F30800F4
:100B00007047C1F3080282807047000010B50120D1
:100B100003490870034A00210348FFF7F9FB10BDA1
:100B200003000020800000200064004000BFFEE7BA
:100B30000FB4054B10B503A9044A029800F018F849
:100B400010BC5DF814FB0000C50C00081800002064
:100B500002E008C8121F08C1002AFAD17047704786
:100B6000002001E001C1121F002AFBD170470000E4
:100B70002DE9FF4F89B09B460446002506E0252855
:100B80000BD05A460B999047641C6D1C20780028A6
:100B9000F5D10DB02846BDE8F08F0027B8460122F8
:100BA000474900E0074314F8013F203B02FA03F0F5
:100BB0000842F7D120782E2819D114F8010F47F0F8
:100BC00004072A280ED06FF02F022078A0F1300100
:100BD00009290CD808EB880102EB410100EB010860
:100BE000641CF2E70A98641C50F8048B0A90207881
:100BF0000028CED0642808D0692806D075281ED0D9
:100C00005A460B9990476D1C58E00A994FF00A0913
:100C100001C90A91002802DA40422D2102E039057B
:100C200004D52B218DF82010012103E0F90704D011
:100C30002021F7E78A4608AE0DE00021FAE70A997D
:100C40004FF00A0901C90A91F7E74946FFF78EFA02
:100C5000303106F8011D0028F7D1ADEB060000F198
:100C60002009780701D44FF00108C84502DDA8EB40
:100C7000090000E000208046002706E008A85A4648
:100C8000C05D0B9990476D1C7F1C5745F6DB04E057
:100C900030205A460B9990476D1CB8F10001A8F11D
:100CA0000108F5DC05E016F8010B5A460B99904750
:100CB0006D1CB9F10001A9F10109F4DC641C65E7C0
:100CC0000928010070B504460D46E1B20548FFF75A
:100CD00018FF00BF40210348FFF746FE0028F9D067
:100CE000204670BD0038014000244FF4A060FFF79B
:100CF00087FC0220FFF784FA0120FFF781FAFFF753
:100D00005DFAFFF795FA4FF4E130FFF7ABFA1BA05D
:100D1000FFF70EFF10211B48FFF72BFC4FF4FA7072
:100D2000FFF752FA10211748FFF725FC4FF4FA702D
:100D3000FFF74AFA20E0214613A0FFF7F9FE601CF6
:100D4000C4B2C820FFF740FA10210E48FFF708FC94
:100D5000C0F10100C5B22A4610210A48FFF70DFC78
:100D600020210848FFF7FCFBC0F10100C5B22A466C
:100D700020210448FFF701FCDDE7000020200D0AD8
:100D800000000000000C01405072696E7466CAE4F5
:100D9000B3F6B2E2CAD4A3BA2564200D0A0000005B
:100DA000C00D0008000000201C000000500B0008CF
:100DB000DC0D00081C0000207C040000600B000813
:100DC000000000000000000001020304010203040F
:0C0DD000060708090204060800000000E5
:0400000508000131BD
:00000001FF
